:020000001028C6
:10000800FE00030EF6000408F7000A08F800831241
:1000180003137F08F900222811280321F000042186
:10002800F1000521F2000621F3000721F400A001E8
:10003800A101FA01FB01FC018301B2288C1C4C28A8
:100048000130F5007508FA07B4307A02031C4B2812
:10005800C8307A02031C3728051085100511851150
:100068000512FA014B287A087406031905147A0850
:100078007306031985147A087206031905157A0898
:100088007106031985157A087006031905168C1070
:100098008C1EA7280130F5007508FB079C289A01DB
:1000A800A7281A08F5007508FC00A728FB01852871
:1000B8001A08B43EF5007508F400A7281A08B43EDB
:1000C800F5007508F300A7281A08B43EF50075086E
:1000D800F200A7281A08B43EF5007508F100A72811
:1000E8001A08B43EF5007508F000A7281A08031985
:1000F8008128831203138616A728831203138612F6
:10010800A7287C083C3A03195C28023A031962289C
:100118007E3A03196828033A03196E28063A031928
:1001280074280F3A03197A28A728A728FB01A728BB
:100138007B08013A03195328033A03195528013A51
:1001480003195A289A287908FF0078088A0077083E
:100158008400760E8300FE0E7E0E0900FA20E3204E
:10016800EF20831203138C01C0308B00831203131A
:10017800981CBF28C52083120313181DBA28D42041
:10018800BA28831203131A08A2002208A1001A0829
:10019800A2002208A10018121816981C0800C528E9
:1001A800831203131A08A2002208A0001A08A2004A
:1001B8002208A00098139817181D0800D428273083
:1001C8008316031399008614A43098009030831284
:1001D80003139800080005308312031392007C3043
:1001E80083160313920022308C0008008316031331
:1001F8000510851005118511061086110800B934FF
:08020800B734BB34BA34BA3438
:02400E0042DE90
:00000001FF
