:020000001028C6
:10000800FE00030EF1000408F2000A08F300831250
:1000180003137F08F400232811281521A2001121B9
:10002800F9001221FA001321FB001421FC00A001A1
:10003800A101F501F601F701F8018301BF288C1C25
:100048004D280130F0007008F507B4307502031C24
:100058004C28C8307502031C382805108510051176
:1000680085110610F5014C2875087C06031905143E
:1000780075087B060319851475087A060319051592
:1000880075087906031985157508220603190614DB
:100098008C108C1EB4280130F0007008F607A928CF
:1000A800A7281A08F0007008F800B428F6011A0802
:1000B800F0007008F7000B307702031C91280A3013
:1000C800F0007008F70091287708B43EF000700837
:1000D800FC00B4287708B43EF0007008FB00B42890
:1000E8007708B43EF0007008FA00B4287708B43EE8
:1000F800F0007008F900B4287708B43EF0007008E2
:10010800A200B428770803198D28831203138616D2
:10011800B428831203138612B42878083C3A0319CA
:100128006828023A03196E287E3A03197428033A9C
:1001380003197A28063A031980280F3A03198628E2
:10014800B428B428F6019A01B4287608013A0319AC
:100158005428033A03195528013A03195A28A6289E
:100168007408FF0073088A0072088400710E830007
:10017800FE0E7E0E09000821FD20CF200B178B17DD
:1001880083120313981CC928DF2083120313181D38
:10019800C428EE20C4287C30831603139200013053
:1001A8008312031392008C10831603138C1483128A
:1001B800031312150800831203131A08A300230857
:1001C800A1001A08A3002308A10018121816981CE9
:1001D8000800DF28831203131A08A3002308A000CD
:1001E8001A08A3002308A00098139817181D0800E0
:1001F800EE288316031386142730990018158312E6
:100208000313181698170800831603130510851092
:1002180005118511061086110800B734BB34BA34AD
:04022800BA34B934F7
:02400E0042DE90
:00000001FF
