:020000040000FA
:020000000C28CA
:10000800FE00030EF2000408F3000A08F4001F289B
:100018000D282121A2001D21F9001E21FA001F210F
:10002800FB002021FC00A001A101F501F601F70168
:10003800F8018301CB28831203138C1C4B28013051
:10004800F0007008F507B4307502031C4A28C83060
:100058007502031C36280510851005118511061038
:10006800F5014A2875087C060319051475087B06EE
:100078000319851475087A06031905157508790694
:100088000319851575082206031906148C108C1E91
:10009800C2280130F0007008F607AF28AD281A080A
:1000A800F0007008F800C228F6011A08F00070087D
:1000B800F7000B307702031C8F280A30F000700815
:1000C800F7008F287708B43EF0007008FC00C228BB
:1000D8007708B43EF0007008FB00C2287708B43EE9
:1000E800F0007008FA00C2287708B43EF0007008E3
:1000F800F900C2287708B43EF0007008A200C228B0
:10010800770803198B28831203138616C2288312D3
:1001180003138612C2287808F000F1017108003A2A
:1001280003199728C22870083C3A03196628023A2E
:1001380003196C287E3A03197228033A03197828A0
:10014800063A03197E280F3A03198428C228C228C0
:10015800F6019A01C2287608F000F1017108003A08
:100168000319B728AC287008013A03195228033A32
:1001780003195328013A03195828AC2874088A002F
:1001880073088400720E8300FE0E7E0E090014218F
:100198000921DB200B178B1783120313981CD52812
:1001A800EB2083120313181DD028FA20D0287C30A6
:1001B80083160313920001308312031392008C10EC
:1001C800831603138C148312031312150800831269
:1001D80003131A08A3002308A1001A08A300230880
:1001E800A10018121816981C0800EB288312031394
:1001F8001A08A3002308A0001A08A3002308A000D7
:1002080098139817181D0800FA28831603138614E4
:100218002730990018158312031318169817080029
:100228008316031305108510051185110610861114
:0C0238000800B734BB34BA34BA34B9340F
:02400E0042DE90
:00000001FF
