:020000001028C6
:10000800FE00030EF6000408F7000A08F800831241
:1000180003137F08F90020281128FA01FB01FC01CD
:10002800D520F000D620F100D720F200D820F30028
:10003800D920F4008301AE288C1C4A280130F50031
:100048007508FC07B4307C02031C4928C8307C02C0
:10005800031C352805108510051185110610FC01B3
:1000680049287C087006031905147C0871060319D1
:1000780085147C087206031905157C087306031994
:1000880085157C087406031906148C108C1EA32889
:100098000130F5007508FB0798289A01A3281A086B
:1000A800F5007508FA00A328FB0183281A08B43E56
:1000B800F5007508F000A3281A08B43EF500750885
:1000C800F100A3281A08B43EF5007508F200A32829
:1000D8001A08B43EF5007508F300A3281A08B43EC0
:1000E800F5007508F400A3281A0803197F2883125D
:1000F80003138616A328831203138612A3287A08EB
:100108003C3A03195A28023A031960287E3A03191F
:100118006628033A03196C28063A031972280F3A1D
:1001280003197828A328A3287B08013A0319512822
:10013800033A03195328013A03195828A3287908C0
:10014800FF0078088A0077088400760E8300FE0E88
:100158007E0E09008312031385018601273083165A
:1001680003139900A4309800903083120313980069
:1001780007309F008316031385010630860005307B
:100188008312031392007C308316031392008312A8
:1001980003138C012230831603138C00C0308B00AC
:0C01A800D428BA34BA34BB34B734B934AC
:02400E0042DE90
:00000001FF
