:020000001028C6
:10000800FE00030EF6000408F7000A08F800831241
:1000180003137F08F900222811280421F000052184
:10002800F1000621F2000721F3000821F400A001E5
:10003800A101FA01FB01FC018301B2288C1C4C28A8
:100048000130F5007508FA07B4307A02031C4B2812
:10005800C8307A02031C3728051085100511851150
:100068000512FA014B287A087406031905147A0850
:100078007306031985147A087206031905157A0898
:100088007106031985157A087006031905168C1070
:100098008C1EA7280130F5007508FB079C289A28B4
:1000A8001A08F5007508FC00A728FB0184281A081F
:1000B800B43EF5007508F400A7281A08B43EF50008
:1000C8007508F300A7281A08B43EF5007508F20071
:1000D800A7281A08B43EF5007508F100A7281A08E1
:1000E800B43EF5007508F000A7281A0803198028FF
:1000F800831203138616A728831203138612A728D0
:100108007C083C3A03195B28023A031961287E3AB5
:1001180003196728033A03196D28063A0319732847
:100128000F3A03197928A728A728FB019A01A728BD
:100138007B08013A03195328033A03195428013A52
:100148000319592899287908FF0078088A00770840
:100158008400760E8300FE0E7E0E0900FB20F02040
:10016800C2200B178B1783120313981CBC28D220AC
:1001780083120313181DB728E120B7287C30831693
:100188000313920001308312031392008C1083161C
:1001980003138C148312031312150800831203131C
:1001A8001A08A2002208A1001A08A2002208A10029
:1001B80018121816981C0800D228831203131A085C
:1001C800A2002208A0001A08A2002208A000981382
:1001D8009817181D0800E128831603138614273082
:1001E8009900181583120313181698170800831618
:1001F80003130510851005118511061086110800D6
:0A020800B934B734BB34BA34BA3449
:02400E0042DE90
:00000001FF
