:020000040000FA
:04000000FDEF00F020
:100008000F820E01CEA30BEF00F00DEF00F066EFAC
:1000180000F0022AB30E026414EF00F016EF00F0AD
:1000280065EF00F0C70E02641CEF00F01EEF00F051
:1000380027EF00F08D908D928D948D968E90000E06
:10004800026E65EF00F00C500218D8A42EEF00F0F5
:1000580030EF00F033EF00F08D8033EF00F00B50FD
:100068000218D8A43AEF00F03CEF00F03FEF00F0A0
:100078008D823FEF00F00A500218D8A446EF00F036
:1000880048EF00F04BEF00F08D844BEF00F0095083
:100098000218D8A452EF00F054EF00F057EF00F028
:1000A8008D8657EF00F008500218D8A45EEF00F0D4
:1000B80060EF00F065EF00F08E8065EF00F065EF0F
:1000C80000F0CE93CDAB6BEF00F06DEF00F0FBEFDF
:1000D80000F0032AE0EF00F0000E996EFBEF00F04D
:1000E80099CF05F0FBEF00F0000E036E99CF04F0F6
:1000F8000A0E046482EF00F084EF00F0B1EF00F024
:100108000A0E046EB1EF00F0B1EF00F00450B40F26
:100118000C6EFBEF00F00450B40F0B6EFBEF00F019
:100128000450B40F0A6EFBEF00F00450B40F096ED0
:10013800FBEF00F00450B40F086EFBEF00F0045022
:10014800D8A4A9EF00F0ACEF00F08E8AADEF00F074
:100158008E9AFBEF00F0FBEF00F005500D6E0E6A73
:100168000E50000AD8B4BBEF00F0FBEF00F00D50C2
:100178003C0AD8B48AEF00F0020AD8B48FEF00F036
:100188007E0AD8B494EF00F0030AD8B499EF00F0CF
:10019800060AD8B49EEF00F00F0AD8B4A3EF00F017
:1001A800FBEF00F0FBEF00F0000E036E000E996EFF
:1001B800FBEF00F0FBEF00F003500D6E0E6A0E50DF
:1001C800000AD8B4EAEF00F0D8EF00F00D50010AA9
:1001D800D8B470EF00F0030AD8B474EF00F0010A45
:1001E800D8B478EF00F0D8EF00F0FBEF00F00F92F2
:1001F800110025EF01F072EC01F06BEC01F062ECFC
:1002080001F0F28CF28E09EF01F09DA20EEF01F0E1
:1002180010EF01F014EF01F042EC01F014EF01F0DF
:100228009DA419EF01F01BEF01F009EF01F052EC6A
:1002380001F009EF01F009EF01F009EF01F0FDEF1E
:1002480000F0F20EF66E020EF76E000EF86E00EE7B
:1002580008F010EE05F00900F5CFEEFFE550E1508B
:10026800FAE100EE01F0070EEE6AE806FDE10F90F4
:100278000F92000EF86E0001FFEF00F099CF07F023
:1002880099CF07F09D989D889DB24DEF01F04FEFF3
:1002980001F042EF01F051EF01F0120099CF06F0A2
:1002A80099CF06F09D9E9D8E9DB45DEF01F05FEFA6
:1002B80001F052EF01F061EF01F012007C0EBC6E0C
:1002C800010EBD6E0E01CE93C683BD8E12008982CB
:1002D800270E9B6E9E849D889D8E12008890889222
:0F02E80088948896899089961200B9B7BBBABAE4
:020000040020DA
:10000000FF0FFF0FFF0FFF0FFF0FFF0FFF0FFF0F80
:020000040030CA
:0C0000008CF7FCFC9FFFFCD8FCFFFCFD13
:00000001FF
