:020000040000FA
:04000000FDEF00F020
:100008000E820E01CEA30BEF00F00DEF00F066EFAD
:1000180000F0012AB30E016414EF00F016EF00F0AF
:1000280065EF00F0C70E01641CEF00F01EEF00F052
:1000380027EF00F08D908D928D948D968E90000E06
:10004800016E65EF00F00B500118D8A42EEF00F0F8
:1000580030EF00F033EF00F08D8033EF00F00A50FE
:100068000118D8A43AEF00F03CEF00F03FEF00F0A1
:100078008D823FEF00F009500118D8A446EF00F038
:1000880048EF00F04BEF00F08D844BEF00F0085084
:100098000118D8A452EF00F054EF00F057EF00F029
:1000A8008D8657EF00F007500118D8A45EEF00F0D6
:1000B80060EF00F065EF00F08E8065EF00F065EF0F
:1000C80000F0CE93CDAB6BEF00F06DEF00F0FBEFDF
:1000D80000F0022AE0EF00F0000E996EFBEF00F04E
:1000E80099CF04F0FBEF00F0000E026E99CF03F0F9
:1000F8000A0E036482EF00F084EF00F0B1EF00F025
:100108000A0E036EB1EF00F0B1EF00F00350B40F28
:100118000B6EFBEF00F00350B40F0A6EFBEF00F01C
:100128000350B40F096EFBEF00F00350B40F086ED4
:10013800FBEF00F00350B40F076EFBEF00F0035025
:10014800D8A4A9EF00F0ACEF00F08E8AADEF00F074
:100158008E9AFBEF00F0FBEF00F004500C6E0D6A76
:100168000D50000AD8B4BBEF00F0FBEF00F00C50C4
:100178003C0AD8B48AEF00F0020AD8B48FEF00F036
:100188007E0AD8B494EF00F0030AD8B499EF00F0CF
:10019800060AD8B49EEF00F00F0AD8B4A3EF00F017
:1001A800FBEF00F0FBEF00F0000E026E000E996E00
:1001B800FBEF00F0FBEF00F002500C6E0D6A0D50E3
:1001C800000AD8B4EAEF00F0D8EF00F00C50010AAA
:1001D800D8B470EF00F0030AD8B474EF00F0010A45
:1001E800D8B478EF00F0D8EF00F0FBEF00F00E92F3
:1001F800110025EF01F072EC01F06BEC01F062ECFC
:1002080001F0F28CF28E09EF01F09DA20EEF01F0E1
:1002180010EF01F014EF01F042EC01F014EF01F0DF
:100228009DA419EF01F01BEF01F009EF01F052EC6A
:1002380001F009EF01F009EF01F009EF01F0FDEF1E
:1002480000F0F20EF66E020EF76E000EF86E00EE7B
:1002580007F010EE05F00900F5CFEEFFE550E1508C
:10026800FAE1066A056A046A036A026A016A0E907C
:100278000E92000EF86E0001FFEF00F099CF06F025
:1002880099CF06F09D989D889DB24DEF01F04FEFF4
:1002980001F042EF01F051EF01F0120099CF05F0A3
:1002A80099CF05F09D9E9D8E9DB45DEF01F05FEFA7
:1002B80001F052EF01F061EF01F012007C0EBC6E0C
:1002C800010EBD6E0E01CE93C683BD8E12008982CB
:1002D800270E9B6E9E849D889D8E12008890889222
:0F02E80088948896899089961200B9B7BBBABAE4
:020000040020DA
:10000000FF0FFF0FFF0FFF0FFF0FFF0FFF0FFF0F80
:020000040030CA
:0C0000008CF7FCFC9FFFFCD8FCFFFCFD13
:00000001FF
